:100000000C942A000C943F000C943F000C943F0089
:100010000C943F000C943F000C943F000C943F0064
:100020000C943F000C943F000C943F000C943F0054
:100030000C943F000C943F000C943F000C943F0044
:100040000C943F000C943F000C943F000C943F0034
:100050000C943F0011241FBECFE5D8E0DEBFCDBF1A
:1000600011E0A0E6B0E0EEEAF2E202C005900D92E7
:10007000A038B107D9F70E94D0100C9455110C94F8
:100080000000AEE5B0E0E7E4F0E00C941E11A8E05B
:100090004E010894811C911CF4016A2E11926A94FD
:1000A000E9F729833A834B835C836D837E838F8357
:1000B0009887CE010996FC011192AA95E9F7A986C5
:1000C000BA86CB86DC86ED86FE860F87188B298460
:1000D0003A844B845C84ED84FE840F8518896980A2
:1000E0007A808B809C806DA67EA68FA698AA6D8054
:1000F0007E808F809884E114F1040105110509F0D8
:10010000B3C3621473048404950408F03DC100E095
:10011000201600E0300601E0400600E0500688F4BA
:100120001FEF211631044104510439F030F048E04A
:10013000E42EF12C012D112D18C0EE24FF2487018F
:1001400014C020E0221620E0320620E0420621E022
:10015000520630F038E1E32EF12C012D112D05C0AF
:1001600020E1E22EF12C012D112DD201C1010E2C26
:1001700004C0B695A795979587950A94D2F7805AAB
:100180009F4FDC012C9180E290E0A0E0B0E08E195E
:100190009F09A00BB10B7C018D01E21AF108010946
:1001A0001109E114F10401051105A1F10E2C04C09F
:1001B000220C331C441C551C0A94D2F7A401930151
:1001C0000E2C04C0220F331F441F551F0A94D2F770
:1001D00080E290E08E199F096DA47EA48FA498A858
:1001E00004C096948794779467948A95D2F7622A8C
:1001F000732A842A952AADA4BEA4CFA4D8A804C08B
:10020000AA0CBB1CCC1CDD1CEA94D2F7ADA6BEA682
:10021000CFA6D8AA6201EE24FF24CDAADEAAEFAAB7
:10022000F8AE920181012070307009AF1AAF2BAF88
:100230003CAFC401B301A70196010E94FC107B01F1
:100240008C01C401B3012DA93EA94FA958AD0E944C
:10025000FC10C901DA013C014D01C401B30129AD13
:100260003AAD4BAD5CAD0E94DD109B01AC01870146
:10027000FF24EE24ADA4BEA4CFA4D8A8C601AA270B
:10028000BB2757016801A82AB92ACA2ADB2AA21665
:10029000B306C406D506E0F4089461087108810825
:1002A0009108A20CB31CC41CD51CA214B304C40432
:1002B000D50470F0A216B306C406D50648F4089417
:1002C0006108710881089108A20CB31CC41CD51CDC
:1002D000A21AB30AC40AD50AC601B5012DA93EA9BE
:1002E0004FA958AD0E94FC107B018C01C601B501DD
:1002F0002DA93EA94FA958AD0E94FC10C901DA01F1
:100300005C016D01C601B50129AD3AAD4BAD5CADE7
:100310000E94DD109B01AC018701FF24EE248DA516
:100320009EA5AFA5B8A9A070B070E82AF92A0A2B3B
:100330001B2BE216F30604071507C0F40894A10866
:10034000B108C108D108E20CF31C041D151DE2140C
:10035000F3040405150550F0E216F306040715072B
:1003600028F40894A108B108C108D108D30199273D
:10037000882786017501E82AF92A0A2B1B2BE9AA8E
:10038000FAAA0BAB1CABCFC42114310441045104B5
:1003900071F461E070E080E090E020E030E040E067
:1003A00050E00E94FC10C901DA011C012D0100E09F
:1003B000201600E0300601E0400600E0500688F418
:1003C0001FEF211631044104510431F028F048E0B8
:1003D00050E060E070E017C040E050E060E070E0A6
:1003E00012C020E0221620E0320620E0420621E082
:1003F000520628F048E150E060E070E004C040E1BF
:1004000050E060E070E0D201C101042E04C0B69556
:10041000A795979587950A94D2F7805A9F4FDC014C
:100420002C91E0E2EE2EF12C012D112DD801C70107
:10043000841B950BA60BB70B821B9109A109B1096F
:100440000097A105B10561F464015301A218B30836
:10045000C408D50831E0632E712C812C912C1EC16B
:100460006F968FAF6F97082E04C0220C331C441C6C
:10047000551C0A94D2F7EE2DE81B640153010E2E91
:1004800004C0D694C794B794A7940A94D2F7A40151
:1004900093016F960FAC6F9704C0220F331F441F58
:1004A000551F0A94D2F76DA47EA48FA498A80E2E8F
:1004B00004C096948794779467940A94D2F7840141
:1004C0007301E22AF32A042B152BE9A6FAA60BA73F
:1004D0001CA7320188249924920181012070307078
:1004E00021960CAF1DAF2EAF3FAF2197C601B501CE
:1004F000A40193010E94FC107B018C01C601B5018F
:10050000A40193010E94FC10C901DA0125968CAF69
:100510009DAFAEAFBFAF2597BC01CD0121962CADED
:100520003DAD4EAD5FAD21970E94DD109B01AC014A
:100530008701FF24EE24A9A4BAA4CBA4DCA4C6019D
:10054000AA27BB275C016D01AE28BF28C02AD12A8B
:10055000A216B306C406D50660F525966CAD7DAD32
:100560008EAD9FAD2597615070408040904025969C
:100570006CAF7DAF8EAF9FAF2597A20CB31CC41C90
:10058000D51CA214B304C404D50498F0A216B30673
:10059000C406D50670F461507040804090402596A6
:1005A0006CAF7DAF8EAF9FAF2597A20CB31CC41C60
:1005B000D51CA21AB30AC40AD50AC601B501A40102
:1005C00093010E94FC107B018C01C601B501A401BE
:1005D00093010E94FC10C901DA013C014D01C401E4
:1005E000B30121962CAD3DAD4EAD5FAD21970E947C
:1005F000DD109B01AC018701FF24EE2489A59AA59B
:10060000ABA5BCA5A070B07057016801A82AB92A93
:10061000CA2ADB2AA216B306C406D506E0F408945B
:100620006108710881089108A20CB31CC41CD51C78
:10063000A214B304C404D50470F0A216B306C40611
:10064000D50648F408946108710881089108A20C45
:10065000B31CC41CD51C8DA59EA5AFA5B8A96F96CB
:100660000FAC6F9704C0880F991FAA1FBB1F0A9475
:10067000D2F78DA79EA7AFA7B8ABA21AB30AC40A38
:10068000D50A2596ECACFDAC0EAD1FAD2597D70174
:1006900099278827682A792A8A2A9B2A8201222771
:1006A000332729960CAF1DAF2EAF3FAF2997A2017C
:1006B0009101407050702D962CAF3DAF4EAF5FAFA3
:1006C0002D97C601B50129962CAD3DAD4EAD5FAD60
:1006D00029970E94FC107B018C01C601B501299667
:1006E0002CAD3DAD4EAD5FAD29970E94FC10C90108
:1006F000DA0161968CAF9DAFAEAFBFAF6197BC0121
:10070000CD012D962CAD3DAD4EAD5FAD2D970E9428
:10071000DD109B01AC018701FF24EE24ADA4BEA433
:10072000CFA4D8A8C601AA27BB2757016801A82AC9
:10073000B92ACA2ADB2AA216B306C406D50660F572
:1007400061966CAD7DAD8EAD9FAD6197615070408F
:100750008040904061966CAF7DAF8EAF9FAF619748
:10076000A20CB31CC41CD51CA214B304C404D5042D
:1007700098F0A216B306C406D50670F46150704016
:100780008040904061966CAF7DAF8EAF9FAF619718
:10079000A20CB31CC41CD51CA21AB30AC40AD50AE5
:1007A000C601B50129962CAD3DAD4EAD5FAD299783
:1007B0000E94FC107B018C01C601B50129962CAD6D
:1007C0003DAD4EAD5FAD29970E94FC10C901DA0125
:1007D0005C016D01C601B5012D962CAD3DAD4EAD50
:1007E0005FAD2D970E94DD109B01AC018701FF24B6
:1007F000EE248DA59EA5AFA5B8A9A070B070E82A7B
:10080000F92A0A2B1B2BE216F30604071507C0F47E
:100810000894A108B108C108D108E20CF31C041D1A
:10082000151DE214F3040405150550F0E216F30655
:100830000407150728F40894A108B108C108D108D5
:100840006196ECACFDAC0EAD1FAD6197D701992759
:10085000882796018501082B192B2A2B3B2B09ABE6
:100860001AAB2BAB3CAB62C26E147F0480069106C0
:1008700008F451C220E0E21620E0F20621E002076F
:1008800020E0120788F43FEFE316F104010511059B
:1008900031F028F048E050E060E070E017C040E040
:1008A00050E060E070E012C040E0E41640E0F40682
:1008B00040E0040741E0140728F048E150E060E020
:1008C00070E004C040E150E060E070E0D801C70192
:1008D000042E04C0B695A795979587950A94D2F7EC
:1008E000805A9F4FDC012C9130E2A32EB12CC12CF9
:1008F000D12CD601C501841B950BA60BB70B821B0F
:100900009109A109B1090097A105B10589F4E6147F
:10091000F7040805190508F4F2C16DA47EA48FA49C
:1009200098A8621473048404950408F0E8C1F3C124
:100930006E968FAF6E97082E04C0EE0CFF1C001F42
:10094000111F0A94D2F76A2D681BD201C101062E2D
:1009500004C0B695A795979587950A94D2F75C0140
:100960006D01AE28BF28C02AD12AADA2BEA2CFA257
:10097000D8A6720161016E960FAC6E9704C0CC0CC4
:10098000DD1CEE1CFF1C0A94D2F7C9A2DAA2EBA26E
:10099000FCA264015301062E04C0D694C794B794F8
:1009A000A7940A94D2F7D401C3016E960FAC6E9748
:1009B00004C0880F991FAA1FBB1F0A94D2F7EDA489
:1009C000FEA40FA518A904C016950795F794E794FF
:1009D0006A95D2F737014801682A792A8A2A9B2A20
:1009E0006D8E7E8E8F8E98A2EDA0FEA00FA118A511
:1009F0003801882499249801870120703070659609
:100A00000CAF1DAF2EAF3FAF6597C601B501A40176
:100A100093010E94FC107B018C01C601B501A40169
:100A200093010E94FC10C901DA011C012D01C201D1
:100A3000B10165962CAD3DAD4EAD5FAD65970E94A1
:100A4000DD109B01AC018701FF24EE24AD8CBE8C30
:100A5000CF8CD8A0C601AA27BB2757016801A82AB6
:100A6000B92ACA2ADB2AA216B306C406D50600F59F
:100A700008942108310841085108EDA0FEA00FA1FB
:100A800018A5AE0CBF1CC01ED11EAE14BF04C006FC
:100A9000D10670F0A216B306C406D50648F4089431
:100AA0002108310841085108AE0CBF1CC01ED11EE0
:100AB000A21AB30AC40AD50AC601B501A40193015A
:100AC0000E94FC107B018C01C601B501A4019301B9
:100AD0000E94FC10C901DA013C014D01C401B301BF
:100AE00065962CAD3DAD4EAD5FAD65970E94DD10B6
:100AF0009B01AC018701FF24EE248D8D9E8DAF8D6F
:100B0000B8A1A070B07057016801A82AB92ACA2AF2
:100B1000DB2AA216B306C406D50600F508946108C0
:100B20007108810891086DA17EA18FA198A5A60EDC
:100B3000B71EC81ED91EA616B706C806D90670F07D
:100B4000A216B306C406D50648F4089461087108D5
:100B500081089108A60EB71EC81ED91ED601C50170
:100B6000821B930BA40BB50B898F9A8FAB8FBC8F15
:100B7000D1019927882764015301A82AB92ACA2AD2
:100B8000DB2AA9AABAAACBAADCAA860175012FEF93
:100B90003FEF40E050E0E222F32204231523A601B8
:100BA000662777276D964CAF5DAF6EAF7FAF6D97C1
:100BB000A9A0BAA0CBA0DCA06FEF7FEF80E090E00F
:100BC000A622B722C822D92289A19AA1ABA1BCA191
:100BD0001D0144245524C801B701A60195010E94B6
:100BE000DD1069966CAF7DAF8EAF9FAF6997C8017E
:100BF000B701A20191010E94DD103B014C016D96ED
:100C00006CAD7DAD8EAD9FAD6D97A60195010E9437
:100C1000DD107B018C016D966CAD7DAD8EAD9FAD11
:100C20006D97A20191010E94DD105B016C01A8018A
:100C30009701260D371D481D591D69966CAC7DAC7A
:100C40008EAC9FAC6997C401AA27BB27280F391F18
:100C50004A1F5B1F2E153F054007510748F4E12C42
:100C6000F12C61E0062F112DAE0CBF1CC01ED11E51
:100C7000CA01AA27BB27BC01CD016A0D7B1D8C1DB3
:100C80009D1D698C7A8C8B8C9C8C661677068806E9
:100C9000990640F1661577058805990509F043C066
:100CA000D9019927882769962CAD3DAD4EAD5FAD32
:100CB000699740705070820F931FA41FB51F2DA518
:100CC0003EA54FA558A96E960FAC6E9704C0220F93
:100CD000331F441F551F0A94D2F7281739074A07B4
:100CE0005B0708F509A91AA92BA93CA901501040D6
:100CF0002040304009AB1AAB2BAB3CAB14C0662490
:100D00007724430121E030E040E050E029AB3AABEA
:100D10004BAB5CAB0BC066247724430119AA1AAA1B
:100D20001BAA1CAA03C0662477244301FE01719606
:100D300088E0DF011D928A95E9F7A9A8BAA8CBA897
:100D4000DCA8A98ABA8ACB8ADC8A6D8A7E8A8F8AD5
:100D5000988E29A93A894B895C89662D7E898F896D
:100D6000988DC25ADF4FE2E10C943A11ABE5B0E046
:100D7000ECEBF6E00C941E11A8E04E010894811CE7
:100D8000911CF4016A2E11926A94E9F729833A833F
:100D90004B835C836D837E838F839887CE01099616
:100DA000FC011192AA95E9F7A986BA86CB86DC8662
:100DB000ED86FE860F87188B29843A844B845C84E9
:100DC000AD84BE84CF84D88829813A814B815C81EF
:100DD00069962FAF69976A963FAF6A976B964FAF48
:100DE0006B976C965FAF6C976C966CAC7DAC8EAC71
:100DF0009FAC6C9769AA7AAA8BAA9CAA6D817E8106
:100E00008F8198853B014C016DAA7EAA8FAA98AE6E
:100E1000A114B104C104D10409F004C36214730421
:100E20008404950408F000C100E0201600E03006BC
:100E300001E0400600E0500688F41FEF211631045F
:100E40004104510439F030F088E0E82EF12C012DF6
:100E5000112D18C0EE24FF24870114C040E0241691
:100E600040E0340640E0440641E0540630F0B8E18A
:100E7000EB2EF12C012D112D05C0A0E1EA2EF12C55
:100E8000012D112DD201C1010E2C04C0B695A795DC
:100E9000979587950A94D2F7805A9F4FDC012C9141
:100EA00080E290E0A0E0B0E08E199F09A00BB10BAA
:100EB0005C016D01A21AB108C108D108A9AEBAAE91
:100EC000CBAEDCAEA114B104C104D10409F43FC01F
:100ED00069AD062E04C0220C331C441C551C0A9418
:100EE000D2F7A4019301062E04C0220F331F441F22
:100EF000551F0A94D2F780E290E08A199B096C96FC
:100F0000CCACDDACEEACFFAC6C9704C0F694E794CF
:100F1000D794C7948A95D2F787017601E22AF32AFB
:100F2000042B152BEDAAFEAA0FAB18AF6C968CAD57
:100F30009DADAEADBFAD6C9704C0880F991FAA1FC1
:100F4000BB1F6A95D2F789AB9AABABABBCAB320196
:100F500088249924B201A1016070707021964CAF71
:100F60005DAF6EAF7FAF21976DA97EA98FA998ADB8
:100F7000A40193010E94FC107B018C016DA97EA944
:100F80008FA998ADA40193010E94FC10CA01B90178
:100F900021962CAD3DAD4EAD5FAD21970E94DD1089
:100FA0009B01AC018701FF24EE24A9A8BAA8CBA815
:100FB000DCA8C601AA27BB2757016801A82AB92ABD
:100FC000CA2ADB2AA216B306C406D50690F4A20CE0
:100FD000B31CC41CD51CA214B304C404D50448F02B
:100FE000A216B306C406D50620F4A20CB31CC41C7A
:100FF000D51CA21AB30AC40AD50AC601B501A401B8
:1010000093010E94FC107B018C01C601B501A40173
:1010100093010E94FC10CA01B90121962CAD3DAD8F
:101020004EAD5FAD2197BAC1211431044104510482
:1010300071F461E070E080E090E020E030E040E0BA
:1010400050E00E94FC10C901DA011C012D0100E0F2
:10105000201600E0300601E0400600E0500688F46B
:101060001FEF211631044104510439F030F068E0DB
:10107000E62EF12C012D112D18C0EE24FF2487013E
:1010800014C040E0241640E0340640E0440641E04D
:10109000540630F058E1E52EF12C012D112D05C03C
:1010A00040E1E42EF12C012D112DD201C1010E2CB5
:1010B00004C0B695A795979587950A94D2F7805A5C
:1010C0009F4FDC012C9130E2A32EB12CC12CD12CEE
:1010D000D601C5018E199F09A00BB10B7C018D01B2
:1010E000E21AF10801091109E9AEFAAE0BAF1CAF23
:1010F000E114F1040105110539F464015301A2184A
:10110000B308C408D508E2C0F9AC6896FFAE68978A
:101110000F2C04C0220C331C441C551C0A94D2F71B
:101120008A2D8F1964015301082E04C0D694C794E8
:10113000B794A7940A94D2F7A401930104C0220F94
:10114000331F441F551FFA94D2F76C966CAC7DACDC
:101150008EAC9FAC6C9704C09694879477946794F8
:101160008A95D2F784017301E22AF32A042B152B06
:10117000EDA6FEA60FA718AB320188249924B20170
:10118000A1016070707025964CAF5DAF6EAF7FAF00
:101190002597C601B501A40193010E94FC107B01B3
:1011A0008C01C601B501A40193010E94FC10CA0183
:1011B000B90125962CAD3DAD4EAD5FAD25970E9492
:1011C000DD109B01AC018701FF24EE24ADA4BEA479
:1011D000CFA4D8A8C601AA27BB275C016D01AE2801
:1011E000BF28C02AD12AA216B306C406D50690F499
:1011F000A20CB31CC41CD51CA214B304C404D50493
:1012000048F0A216B306C406D50620F4A20CB31CFF
:10121000C41CD51CA21AB30AC40AD50AC601B5015A
:10122000A40193010E94FC107B018C01C601B50151
:10123000A40193010E94FC10CA01B90125962CADAE
:101240003DAD4EAD5FAD25970E94DD109B01AC0119
:101250008701FF24EE248DA59EA5AFA5B8A9A07097
:10126000B07057016801A82AB92ACA2ADB2AA21637
:10127000B306C406D50690F4A20CB31CC41CD51C3E
:10128000A214B304C404D50448F0A216B306C406DD
:10129000D50620F4A20CB31CC41CD51C6C96ECAC77
:1012A000FDAC0EAD1FAD6C9768960FAC689704C08F
:1012B000EE0CFF1C001F111F0A94D2F7E9AAFAAA2C
:1012C0000BAB1CABA21AB30AC40AD50A320188249C
:1012D0009924B201A1016070707029964CAF5DAF86
:1012E0006EAF7FAF2997C601B501A40193010E949B
:1012F000FC107B018C01C601B501A40193010E9481
:10130000FC10CA01B90129962CAD3DAD4EAD5FADC3
:1013100029970E94DD109B01AC018701FF24EE2478
:10132000A9A8BAA8CBA8DCA8C601AA27BB27570141
:101330006801A82AB92ACA2ADB2AA216B306C4065B
:10134000D50690F4A20CB31CC41CD51CA214B30483
:10135000C404D50448F0A216B306C406D50620F48A
:10136000A20CB31CC41CD51CA21AB30AC40AD50A09
:10137000C601B501A40193010E94FC107B018C0100
:10138000C601B501A40193010E94FC10CA01B90174
:1013900029962CAD3DAD4EAD5FAD29970E94DD1075
:1013A0009B01AC018701FF24EE2489A99AA9ABA96E
:1013B000BCA9A070B070E82AF92A0A2B1B2BE216F0
:1013C000F3060407150790F4E20CF31C041D151D29
:1013D000E214F3040405150548F0E216F3060407C9
:1013E000150720F4E20CF31C041D151DE21AF30A84
:1013F000040B150BD801C70109AC04C0B695A7951D
:10140000979587950A94D2F7898B9A8BAB8BBC8B77
:101410001D8A1E8A1F8A188E282F3A894B895C895B
:101420006D890CC36A147B048C049D0408F409C301
:1014300000E0A01600E0B00601E0C00600E0D00623
:1014400088F41FEFA116B104C104D10439F030F0C3
:1014500028E0E22EF12C012D112D18C0EE24FF24DE
:10146000870114C040E0A41640E0B40640E0C40682
:1014700041E0D40630F098E1E92EF12C012D112D38
:1014800005C080E1E82EF12C012D112DD601C501FA
:101490000E2C04C0B695A795979587950A94D2F718
:1014A000805A9F4FDC012C9180E290E0A0E0B0E0F8
:1014B0008E199F09A00BB10B821B9109A109B109DB
:1014C0000097A105B10509F04FC0A614B704C804E0
:1014D000D90458F06C96ECACFDAC0EAD1FAD6C971A
:1014E000E214F3040405150568F16C96ECACFDAC50
:1014F0000EAD1FAD6C97E218F30804091509A4019D
:1015000093012A193B094C095D09AA24BB246501F2
:101510006C966CAD7DAD8EAD9FAD6C976E157F05F5
:101520008007910728F4B1E0AB2EB12CC12CD12C4F
:10153000DA01C9018A199B09AC09BD098DAB9EABC3
:10154000AFABB8AFE98AFA8A0B8B1C8B6DA87EA86B
:101550008FA898AC6D8A7E8A8F8A988E2E2D3A89B4
:101560004B895C896DA96AC267968FAF6797A601A0
:101570009501082E04C0220F331F441F551F0A94E3
:10158000D2F7A0E2AA2EA81A6696AFAE6697D2014D
:10159000C10104C0B695A79597958795AA94D2F7EF
:1015A0006C017D01C22AD32AE42AF52AC9A6DAA64B
:1015B000EBA6FCA68201710167960FAC679704C089
:1015C000EE0CFF1C001F111F0A94D2F7EDA2FEA221
:1015D0000FA318A76401530166960FAC669704C069
:1015E000D694C794B794A7940A94D2F7A401930110
:1015F00067960FAC679704C0220F331F441F551F17
:101600000A94D2F76C968CAD9DADAEADBFAD6C9724
:1016100066960FAC669704C0B695A7959795879583
:101620000A94D2F73C014D01622A732A842A952A32
:1016300069A27AA28BA29CA26C96ECACFDAC0EAD1A
:101640001FAD6C9767960FAC679704C0EE0CFF1C3C
:10165000001F111F0A94D2F7ED8EFE8E0F8F18A374
:1016600049A55AA56BA57CA53B01882499246070E7
:1016700070702D964CAF5DAF6EAF7FAF2D97C601EA
:10168000B501A40193010E94FC107B018C01C601ED
:10169000B501A40193010E94FC10C901DA011C01EB
:1016A0002D01C201B1012D962CAD3DAD4EAD5FAD0A
:1016B0002D970E94DD109B01AC018701FF24EE24D1
:1016C000A9A0BAA0CBA0DCA0C601AA27BB275701BE
:1016D0006801A82AB92ACA2ADB2AA216B306C406B8
:1016E000D50600F508942108310841085108E9A4FD
:1016F000FAA40BA51CA5AE0CBF1CC01ED11EAE14B7
:10170000BF04C006D10670F0A216B306C406D50603
:1017100048F408942108310841085108AE0CBF1C58
:10172000C01ED11EA21AB30AC40AD50AC601B50149
:10173000A40193010E94FC107B018C01C601B5013C
:10174000A40193010E94FC10C901DA013C014D0182
:10175000C401B3012D962CAD3DAD4EAD5FAD2D97BF
:101760000E94DD109B01AC018701FF24EE2489A1BA
:101770009AA1ABA1BCA1A070B07057016801A82AC2
:10178000B92ACA2ADB2AA216B306C406D50600F572
:101790000894610871088108910869A57AA58BA54C
:1017A0009CA5A60EB71EC81ED91EA616B706C8064B
:1017B000D90670F0A216B306C406D50648F40894FC
:1017C0006108710881089108A60EB71EC81ED91EAF
:1017D000D601C501821B930BA40BB50B898F9A8F81
:1017E000AB8FBC8FD1019927882784017301E82A28
:1017F000F92A0A2B1B2B4FEFA42E4FEFB42EC12C2E
:10180000D12CAE20BF20C022D12278010027112781
:101810006DA07EA08FA098A44FEF5FEF60E070E016
:1018200064227522862297228DA19EA1AFA1B8A520
:10183000BD018827992765966CAF7DAF8EAF9FAFAE
:101840006597C601B501A40193010E94DD10619660
:101850006CAF7DAF8EAF9FAF6197C601B501659646
:101860002CAD3DAD4EAD5FAD65970E94DD101B0107
:101870002C01C801B701A40193010E94DD105B0196
:101880006C01C801B70165962CAD3DAD4EAD5FADA5
:1018900065970E94DD107B018C01A6019501220D48
:1018A000331D441D551D61966CAC7DAC8EAC9FAC58
:1018B0006197C401AA27BB27280F391F4A1F5B1F46
:1018C0002A153B054C055D0548F4812C912CE1E07F
:1018D000AE2EB12CE80CF91C0A1D1B1DCA01AA274B
:1018E000BB2757016801A80EB91ECA1EDB1EA9013D
:1018F0003327222761968CAD9DADAEADBFAD61970C
:10190000A070B070280F391F4A1F5B1FE98CFA8C3A
:101910000B8D1C8DEA14FB040C051D0570F0AE1434
:10192000BF04C006D10669F56D8D7E8D8F8D98A19F
:10193000621773078407950720F5DA01C9016DA0C6
:101940007EA08FA098A486199709A809B909E9A4CF
:10195000FAA40BA51CA5AE18BF08C00AD10AEE2434
:10196000FF248701281739074A075B0728F421E07D
:10197000E22EF12C012D112DAE18BF08C00AD10A9C
:1019800002C0DA01C9016D8C7E8C8F8C98A0681A18
:10199000790A8A0A9B0A498D5A8D6B8D7C8D4A196A
:1019A0005B096C097D095A016B0122243324210152
:1019B0006D8D7E8D8F8D98A16615770588059905AB
:1019C00028F481E0282E312C412C512C8601750100
:1019D000E218F30804091509A801970166960FACEF
:1019E000669704C0220F331F441F551F0A94D2F775
:1019F000D401C30167960FAC679704C0B695A7954D
:101A0000979587950A94D2F7282B392B4A2B5B2B75
:101A1000298B3A8B4B8B5C8B67960FAC679704C016
:101A200016950795F794E7940A94D2F7ED8AFE8A03
:101A30000F8B188F3A894B895C896E2D7E898F892F
:101A4000988DC55ADF4FE2E10C943A118FEF8ABBB3
:101A500087BB8FE084BB11BA0895843008F075C04D
:101A6000683008F072C04130B1F5813099F08130B2
:101A700030F08230D1F0833009F067C021C02AB342
:101A800081E090E002C0880F991F6A95E2F7282B49
:101A90002ABB089527B381E090E002C0880F991F08
:101AA0006A95E2F7282B27BB089524B381E090E0E4
:101AB00002C0880F991F6A95E2F7282B24BB08956E
:101AC00021B381E090E002C0880F991F6A95E2F788
:101AD000282B21BB08954423C1F5813099F0813032
:101AE00028F08230D9F0833081F524C02AB381E018
:101AF00090E002C0880F991F6A95E2F780958223D3
:101B00008ABB089527B381E090E002C0880F991F37
:101B10006A95E2F78095822387BB089524B381E01C
:101B200090E002C0880F991F6A95E2F780958223A2
:101B300084BB089521B381E090E002C0880F991F13
:101B40006A95E2F78095822381BB0895843080F402
:101B5000813049F0813028F0823039F0833041F40F
:101B600006C06ABB089567BB089564BB089561BB56
:101B70000895843008F075C0683008F072C04130B4
:101B8000B1F5813099F0813030F08230D1F083307E
:101B900009F067C021C02BB381E090E002C0880F3C
:101BA000991F6A95E2F7282B2BBB089528B381E093
:101BB00090E002C0880F991F6A95E2F7282B28BB96
:101BC000089525B381E090E002C0880F991F6A95BF
:101BD000E2F7282B25BB089522B381E090E002C0F4
:101BE000880F991F6A95E2F7282B22BB089544239A
:101BF000C1F5813099F0813028F08230D9F08330FE
:101C000081F524C02BB381E090E002C0880F991FBA
:101C10006A95E2F7809582238BBB089528B381E013
:101C200090E002C0880F991F6A95E2F780958223A1
:101C300088BB089525B381E090E002C0880F991F0A
:101C40006A95E2F78095822385BB089522B381E0EF
:101C500090E002C0880F991F6A95E2F78095822371
:101C600082BB08958430B0F56830A0F5813091F0E2
:101C7000813028F08230C9F0833061F521C02BB368
:101C800081E090E002C0880F991F6A95E2F728274B
:101C90002BBB089528B381E090E002C0880F991F04
:101CA0006A95E2F7282728BB089525B381E090E0E4
:101CB00002C0880F991F6A95E2F7282725BB08956F
:101CC00022B381E090E002C0880F991F6A95E2F785
:101CD000282722BB0895843080F4813049F0813078
:101CE00028F0823039F0833041F406C06BBB089590
:101CF00068BB089565BB089562BB08958430D0F435
:101D00006830C0F4813049F0813028F0823039F0F9
:101D1000833081F406C089B305C086B303C083B3A2
:101D200001C080B390E002C0959587956A95E2F76F
:101D30008170089580E00895882321F480E060E0B8
:101D40000E94320E0895882329F480E060E040E08C
:101D50000E94B90D0895882329F480E060E041E0F5
:101D60000E94B90D08950F931F93182F482F4170AB
:101D700080E060E00E94B90D412F4695417080E0FF
:101D800061E00E94B90D412F46954695417080E073
:101D900062E00E94B90D412F4695469546954170E7
:101DA00080E063E00E94B90D412F4295417080E0D0
:101DB00064E00E94B90D412F42954695417080E044
:101DC00065E00E94B90D1295169516951370412F76
:101DD000417080E066E00E94B90D169580E067E0F2
:101DE000412F0E94B90D81E062E041E00E94B90DEF
:101DF00000EA1FE0C8010197F1F781E062E040E0EE
:101E00000E94B90DC8010197F1F71F910F91089534
:101E10001F93182F81E060E041E00E94B90D81E03E
:101E200061E040E00E94B90D812F0E94B30E1F9126
:101E300008952F923F924F925F926F927F928F926E
:101E40009F92AF92BF92CF92DF92EF92FF920F9349
:101E50001F93DF93CF93CDB7DEB763970FB6F89498
:101E6000DEBF0FBECDBF922E832E342E452E562EB2
:101E7000672E782E292E992309F077C023E22817A0
:101E800008F473C08217B1F486E8871708F46DC0B0
:101E9000781781F492EF961708F467C0691751F428
:101EA000EFE6E51708F461C05E1721F4F0ECF417D3
:101EB00008F45BC0892D88298329842985298629EE
:101EC000872921F480E30E94080F4FC0198A81E01E
:101ED00090E08C0F9D1FE9898E0F911D9B8B8A8B43
:101EE000292D382D432D542D652D762D872D922D9E
:101EF000EAE0AE2EBB24CC24DD24EE24FF2400E057
:101F000010E00E94B606EA89FB892083292D382D2E
:101F1000432D542D652D762D872D922D0E94410045
:101F2000922E832E342E452E562E672E782E292E55
:101F3000F989FF5FF98B822F8829832984298529D4
:101F400086298729822919F601E010E00C0F1D1F50
:101F50000F0F111D05C0F8018081805D0E94080FE0
:101F6000015010400C171D07B1F763960FB6F89497
:101F7000DEBF0FBECDBFCF91DF911F910F91FF90BC
:101F8000EF90DF90CF90BF90AF909F908F907F9019
:101F90006F905F904F903F902F900895CF93DF9375
:101FA000EC0103C00E94080F219688818823D1F795
:101FB000DF91CF9108951F93182F81E060E040E0FA
:101FC0000E94B90D81E061E040E00E94B90D812FCF
:101FD0000E94B30E1F910895803160F4613019F0B2
:101FE000623041F404C080580E94DB0F0895805491
:101FF0000E94DB0F08950F931F938EE591E028EC6C
:1020000030E0F9013197F1F70197D9F782E00E94AA
:10201000DB0F00ED17E0C8010197F1F788E30E949C
:10202000DB0FC8010197F1F78CE00E94DB0FC801BC
:102030000197F1F781E00E94DB0F80EA9FE00197B2
:10204000F1F786E00E94DB0FC8010197F1F71F91BD
:102050000F9108954F925F926F927F928F929F920D
:10206000AF92BF92CF92DF92EF92FF920F931F93A6
:10207000CF93DF93C8E7D1E0EE24FF2440906001C6
:1020800050906101609062017090630180906401E2
:1020900090906501A0906601B0906701D880C980DA
:1020A0008D2D6C2D40E00E94B90D8201842D612F91
:1020B0000E947E0E882319F4C0E0D0E01DC0830189
:1020C000862D612F0E947E0E882319F4C1E0D0E096
:1020D00013C08401882D612F0E947E0E882319F47D
:1020E000C2E0D0E009C085018A2D612F0E947E0EDA
:1020F0008823B9F4C3E0D0E0802F612F0E947E0EC8
:102100008823D1F38D2D6C2D41E00E94B90DCC0FA9
:10211000DD1FCC0FDD1FCE0DDF1DC859DE4F8881BE
:102120000FC08D2D6C2D41E00E94B90D0894E11C6B
:10213000F11C229684E0E816F10409F0AFCF8FEF8E
:10214000DF91CF911F910F91FF90EF90DF90CF9093
:10215000BF90AF909F908F907F906F905F904F90C7
:1021600008950F931F93CF93DF93C0E6D1E008E764
:1021700011E08881698141E00E94B90DF8018081F8
:10218000618141E00E94B90D22960E5F1F4FF1E080
:10219000C836DF0771F7DF91CF911F910F91089536
:1021A0000E94260D0E94FB0F0E94B1100E942A106F
:1021B0008F3FE1F30E94080FF9CF629FD001739F18
:1021C000F001829FE00DF11D649FE00DF11D929FD3
:1021D000F00D839FF00D749FF00D659FF00D992712
:1021E000729FB00DE11DF91F639FB00DE11DF91F36
:1021F000BD01CF0111240895A1E21A2EAA1BBB1B19
:10220000FD010DC0AA1FBB1FEE1FFF1FA217B307C2
:10221000E407F50720F0A21BB30BE40BF50B661FD8
:10222000771F881F991F1A9469F76095709580959C
:1022300090959B01AC01BD01CF0108952F923F9273
:102240004F925F926F927F928F929F92AF92BF92C6
:10225000CF92DF92EF92FF920F931F93CF93DF9372
:10226000CDB7DEB7CA1BDB0B0FB6F894DEBF0FBECF
:10227000CDBF09942A88398848885F846E847D841C
:102280008C849B84AA84B984C884DF80EE80FD801E
:102290000C811B81AA81B981CE0FD11D0FB6F89494
:0E22A000DEBF0FBECDBFED010895F894FFCF55
:1022AE0000010202030303030404040404040404EF
:1022BE0005050505050505050505050505050505C0
:1022CE0006060606060606060606060606060606A0
:1022DE000606060606060606060606060606060690
:1022EE000707070707070707070707070707070770
:1022FE000707070707070707070707070707070760
:10230E00070707070707070707070707070707074F
:10231E00070707070707070707070707070707073F
:10232E00080808080808080808080808080808081F
:10233E00080808080808080808080808080808080F
:10234E0008080808080808080808080808080808FF
:10235E0008080808080808080808080808080808EF
:10236E0008080808080808080808080808080808DF
:10237E0008080808080808080808080808080808CF
:10238E0008080808080808080808080808080808BF
:10239E0008080808080808080808080808080808AF
:1023AE0002040205020602073738392F3435362A61
:1023BE003132332D43303D2B020002010202020363
:00000001FF
